:03075E00C2902224
:03076100D2902211
:0B07530012075E7FC01207130207614F
:060683007F0F7C007E00E9
:100689008E2A8F2B8C2C8D2D12075E7F0212071359
:0D069900AF2B120713AF2D120713020761DC
:0406FB008E238F2497
:1006FF0012075E7F03120713AF2412071312062D82
:03070F001207616D
:0107120022C4
:0E07380012075E7FA012071312062D12076132
:010746002290
:10065D008E238F248C258D268A278B2812075E7F6B
:10066D0005120713AF24120713AF28120713AF2675
:06067D00120713020761E1
:100588008F278C288D297DE0120683E52714600EBD
:10059800146015146026240370417D0380027D01D8
:1005A8007C007F2A7E008006E4FDFC7F2AFE12067E
:1005B800897D9E7F291206857D038016E4FDFC7FD8
:1005C8002AFE1206897D917C007F297E0012068909
:1005D8007D017C007F287E00120689E52945286078
:0705E800057D441206832289
:0605EF008E308F318B32CB
:1005F5008D3512075E7F02120713AF31120713E420
:10060500F533F534C3E53495327480F86533985085
:100615001474352534F8E6FF1207130534E53470F4
:08062500E3053380DF020761E9
:0604F400E4FBFAFDFCFE32
:0404FA008E278F2892
:1004FE00EB4A60218C298D2AE52AAE297810C33368
:10050E00CE33CED8F9F52A8E29ECC4135400422AE4
:10051E00432A088022530407ED54077B00C433544A
:10052E00E0FAEDAE047803CEC313CE13D8F9FFEE86
:10053E004AF529EF4BF52AE52AF52BE529F52CE5A9
:10054E002AAE297810CEC313CE13D8F9F52DE52A8D
:10055E00AE297818CEC313CE13D8F9F52EE4F52FA5
:10056E00742B252FF8E6FD7B01AF28AE271205EF81
:09057E00052FE52FC3940440E7AA
:010587002251
:1006A6007BFF7A007D647C007F607E0012065D7BA6
:0E06B600FF7A007D607C007F707E0002065D92
:020442008F2306
:10044400120753E4FDFCAF23120588E4FDFC7F2B67
:10045400FE1206897B017A00E4FDFC7F20FE120473
:10046400FA7B017A00E4FDFC7F24FE1204FAE4FB2B
:10047400FAFDFCFFFE1204FA7F041204F47F081252
:1004840004F4E4FBFAFDFC7F10FE1204FAE4FBFA28
:10049400FDFC7F14FE1204FAE4FBFAFDFC7F18FE57
:1004A4001204FA7D04120683752630E4F524E4F57B
:1004B40025AF267E00E4FDFC12068905260525E508
:1004C40025C3940E40EB052605260524E524C39494
:1004D4000340DBE4FDFC7F60FE120689E4FDFC7F43
:1004E40070FE1206897D037C007F2B7E0002068944
:1006C400120738EF30E004E4FEFF22120738EF305F
:0C06D400E1057E007F01227EFF7FFF22F7
:10071300E4FEC293EF339291D293EF25E0FF0EBE36
:0407230008F0C29385
:0107270022AF
:10062D00E4FCFBC293D293E4FF0FBF0AFCE59054A8
:10063D000475F020A4AEF0A803088006CEA2E7133F
:0F064D00CE13D8F82CFCFD0BBB08D8C293AF0519
:01065C00227B
:100728001030206040C080900900000000000000E8
:1000030078107C007D007BFF7A0779287E007F08CB
:1000130012041C78197C007D007BFF7A0779307EFF
:10002300007F0812041C1206E07F0112044212062C
:10003300A61206C48E088F09EFF47002EEF4700363
:1000430002012F7F2C7E001206FB8F21E509450854
:100053007067E52120E00302012FE5092403FFEF88
:10006300C4F8540FC868FFEF2431F5222404FFE4D9
:1000730033FE1206FB8F1853180FC2907F0312072B
:1000830013E5222405FF120713E4F50AF50BC3E574
:100093000B95187480F8650A98501412062D74197C
:1000A300250BF8A607050BE50B70E3050A80DFD2E5
:1000B300907B017A007DFE806AE509640145087042
:1000C3006BE52130E166E5092404FFEFC4F8540F22
:1000D300C868FFEF2431F5222404FFE433FE12063F
:1000E300FB8F1853180FC2907F03120713E52224C6
:1000F30005FF120713E4F50AF50BC3E50B95187416
:1001030080F8650A98501412062D7419250BF8A669
:1001130007050BE50B70E3050A80DFD2907B027ABB
:10012300007DFD7CFF7F2C7E0012065DE519247E99
:10013300607B1470030201DA14700302020414706A
:100143000302023514700302025A240560030200FD
:1001530034C294E4F50AF50B050BE50B7002050AAE
:10016300B410F5E50AB427F0D294E51AB4011EC21F
:1001730095C294E4F50AF50B050BE50B7002050A2D
:10018300B430F5E50AB475F0D29402022CE51A7086
:1001930044D295C294F50AF50B050BE50B700205E5
:1001A3000AB430F5E50AB475F0D294807CC294E4C5
:1001B300F50AF50B050BE50B7002050AB410F5E51E
:1001C3000AB427F0D294E51AB40104C2968006E576
:1001D3001A7002D2968052C294E4F50AF50B050B0D
:1001E300E50B7002050AB410F5E50AB427F0D294C2
:1001F300E51AB40104C2978006E51A7002D297800B
:1002030028C294E4F50AF50B050BE50B7002050A09
:10021300B410F5E50AB427F0D294E51AB40104C288
:10022300948006E51A7002D294E4F519751A030254
:100233000034C294E4F50AF50B050BE50B700205D7
:100243000AB410F5E50AB427F0D294851AA0E4F5B0
:1002530019751AAA020034C294E4F50AF50B050BCA
:10026300E50B7002050AB410F5E50AB427F0D29441
:10027300C3E51A648094804067E4F50CF50DAF1A6A
:10028300EF3395E0FEEF7802C333CE33CED8F9FFD8
:10029300C3E50D9FEE6480F8E50C6480984003028B
:1002A3000344E4F50AF50B7410250BF8E6FFE5802B
:1002B300540F2FF580E4F50EF50F050FE50F7002CF
:1002C300050E64AA450E70F2050BE50B7002050AD4
:1002D3006408450A70D1050DE50D70A2050C809EDA
:1002E300AF1AEF3395E0FEEF7802C333CE33CED8A7
:1002F300F9F50D8E0CC3E50C648094805043750AA8
:1003030000750B077410250BF8E6FFE580540F2FDB
:10031300F580E4F50EF50F050FE50F7002050E6489
:10032300AA450E70F2E50B150B7002150AE50BB426
:10033300FFD2E50AB4FFCD050DE50D70B8050C80BD
:09034300B4E4F519F51A020034C6
:1006E000D290D294D295D296D297D280D281D28211
:0B06F000D283C284C285C286C287226A
:03000000020747AD
:0C074700787FE4F6D8FD758135020003D0
:10034C00E709F608DFFA8046E709F208DFFA803E93
:10035C0088828C83E709F0A3DFFA8032E309F60880
:10036C00DFFA8078E309F208DFFA807088828C83E8
:10037C00E309F0A3DFFA806489828A83E0A3F6089C
:10038C00DFFA805889828A83E0A3F208DFFA804C76
:10039C0080D280FA80C680D4806980F2803380104D
:1003AC0080A680EA809A80A880DA80E280CA8033B6
:1003BC0089828A83ECFAE493A3C8C582C8CCC5832E
:1003CC00CCF0A3C8C582C8CCC583CCDFE9DEE780FE
:1003DC000D89828A83E493A3F608DFF9ECFAA9F07D
:1003EC00EDFB2289828A83ECFAE0A3C8C582C8CCD3
:1003FC00C583CCF0A3C8C582C8CCC583CCDFEADEEC
:10040C00E880DB89828A83E493A3F208DFF980CC4D
:10041C0088F0EF60010E4E60C388F0ED2402B40446
:10042C000050B9F582EB2402B4040050AF232345ED
:06043C00822390039C7373
:00000001FF
